:100000000C9434000C943E000C943E000C943E0082
:100010000C943E000C943E000C943E000C943E0068
:100020000C943E000C943E000C943E000C943E0058
:100030000C943E000C943E000C943E000C943E0048
:100040000C943E000C943E000C943E000C943E0038
:100050000C943E000C943E000C943E000C943E0028
:100060000C943E000C943E0011241FBECFEFD8E04C
:10007000DEBFCDBF0E9440000C9475020C940000BE
:100080000FEF0DBF08E00EBF07E60093C40000E0CD
:100090000093C50008E00093C10006E00093C20091
:1000A00018D202E50FD200E50DD20EE40BD200E229
:1000B00009D203E407D201E605D20CE603D203E637
:1000C00001D20ED205E4FED108E7FCD100E7FAD157
:1000D00001E3F8D10AE3F6D100E2F4D108E2F2D16B
:1000E00002E3F0D10EE2EED105E3ECD100E2EAD179
:1000F00003E3E8D10EE2E6D107E3E4D100E2E2D186
:100100000BE2E0D109E2DED100E2DCD10DE3DAD18D
:1001100000E2D8D106E3D6D10EE2D4D102E3D2D1A7
:10012000DFD105E4CFD108E7CDD100E7CBD102E3A1
:10013000C9D10AE3C7D100E2C5D108E2C3D101E3C6
:10014000C1D100E3BFD100E2BDD104E3BBD100E2E5
:10015000B9D10DE2B7D109E2B5D100E2B3D10DE3D7
:10016000B1D100E2AFD106E3ADD10EE2ABD100E3F5
:10017000A9D1B6D105E4A6D108E7A4D100E7A2D160
:1001800003E3A0D10AE39ED100E29CD108E29AD118
:1001900003E398D100E296D105E394D100E292D135
:1001A0000AE290D109E28ED100E28CD10DE38AD12E
:1001B00000E288D101E386D105E384D10EE282D149
:1001C00000E380D18DD105E47DD108E77BD100E744
:1001D00079D104E377D10AE375D100E273D108E263
:1001E00071D102E36FD100E36DD100E26BD105E381
:1001F00069D100E267D10CE765D109E263D100E281
:1002000061D10DE35FD100E25DD104E35BD10EE289
:1002100059D100E357D164D105E454D108E752D154
:1002200000E750D105E34ED10AE34CD100E24AD1B8
:1002300008E248D102E346D101E344D100E242D1D1
:1002400005E340D100E23ED10FE23CD109E23AD1D0
:1002500000E238D10DE336D100E234D104E332D1EB
:100260000EE230D100E32ED13BD105E42BD108E7DB
:1002700029D100E727D106E325D10AE323D100E203
:1002800021D108E21FD102E31DD102E31BD100E21C
:1002900019D105E317D100E215D105E213D109E226
:1002A00011D100E20FD10DE30DD100E20BD102E339
:1002B00009D10EE207D100E305D112D105E402D144
:1002C00008E700D100E7FED007E3FCD00AE3FAD04C
:1002D00000E2F8D008E2F6D002E3F4D000E2F2D077
:1002E00003E3F0D000E2EED00EE5ECD009E2EAD074
:1002F00000E2E8D00DE3E6D000E2E4D008E3E2D08B
:100300000EE2E0D000E3DED0EBD005E4DBD008E77E
:10031000D9D000E7D7D008E3D5D00AE3D3D000E2A4
:10032000D1D008E2CFD004E3CDD000E2CBD008E2B8
:10033000C9D003E3C7D000E2C5D002E3C3D000E2D6
:10034000C1D00AE2BFD009E2BDD000E2BBD00BE2CF
:10035000B9D009E2B7D000E2B5D00DE3B3D000E2E6
:10036000B1D001E3AFD000E3ADD00EE2ABD000E3FB
:10037000A9D0B6D005E4A6D008E7A4D000E7A2D063
:1003800009E3A0D00AE39ED000E29CD008E29AD014
:1003900008E298D007E396D000E294D003E392D02D
:1003A00000E290D00DE28ED009E28CD000E28AD03B
:1003B00008E288D002E386D000E284D002E382D053
:1003C00000E280D00BE27ED009E27CD000E27AD05D
:1003D0000AE278D009E276D000E274D00DE372D060
:1003E00000E270D001E36ED006E36CD00EE26AD07A
:1003F00000E368D075D005E465D008E763D000E776
:1004000061D00BE25FD00AE35DD000E25BD008E28E
:1004100059D005E357D000E255D009E253D000E2AD
:1004200051D00DE34FD000E24DD005E34BD00EE2AA
:1004300049D000E347D054D005E444D008E742D087
:1004400000E740D00BE23ED00AE33CD000E23AD0D5
:1004500008E238D009E236D000E234D00DE332D0E1
:1004600000E230D005E32ED00EE22CD000E32AD0FB
:1004700037D005E427D008E725D000E723D00BE2EA
:1004800021D00AE31FD000E21DD008E21BD001E317
:1004900019D000E217D009E215D000E213D00DE325
:1004A00011D000E20FD005E30DD00EE20BD000E337
:1004B00009D016D006E406D009E404D00DE402D039
:1004C0000FD0FFCF1091C00015FFFCCF0093C600E6
:1004D000089528EC38EC3A95F1F72A95D9F7089564
:0E04E0000DE0F0DF0AE0EEDF0895F894FFCFA4
:00000001FF
