:100000000C9434000C943E000C943E000C943E0082
:100010000C943E000C943E000C943E000C943E0068
:100020000C943E000C943E000C943E000C943E0058
:100030000C943E000C943E000C943E000C943E0048
:100040000C943E000C943E000C943E000C943E0038
:100050000C943E000C943E000C943E000C943E0028
:100060000C943E000C943E0011241FBECFEFD8E04C
:10007000DEBFCDBF0E9440000C941D030C94000015
:100080000FEF0DBF08E00EBF07E60093C40000E0CD
:100090000093C50008E00093C10006E00093C20091
:1000A000C0D202E5B7D200E5B5D20EE4B3D200E289
:1000B000B1D203E4AFD201E6ADD20CE6ABD203E697
:1000C000A9D2B6D205E4A6D208E7A4D200E7A2D20C
:1000D00001E3A0D20AE39ED200E29CD208E29AD2C7
:1000E00002E398D20EE296D205E394D200E292D2D5
:1000F00001E390D20EE28ED205E38CD200E28AD2E6
:100100000BE288D209E286D200E284D20DE382D2E9
:1001100000E280D204E37ED20EE27CD200E37AD207
:1001200087D205E477D208E775D200E773D202E3FD
:1001300071D20AE36FD200E26DD208E26BD201E322
:1001400069D200E367D20EE265D200E363D200E237
:1001500061D205E35FD20EE25DD200E35BD200E242
:1001600059D20DE257D209E255D200E253D20DE343
:1001700051D200E24FD205E34DD20EE24BD200E362
:1001800049D256D205E446D208E744D200E742D22B
:1001900003E340D20AE33ED200E23CD208E23AD284
:1001A00004E338D20EE236D200E334D200E232D297
:1001B00005E330D20EE22ED200E32CD200E22AD2A6
:1001C0000AE228D209E226D200E224D20DE322D2AA
:1001D00000E220D202E31ED200E31CD20EE21AD2C9
:1001E00000E318D225D205E415D208E713D200E7C0
:1001F00011D204E30FD20AE30DD200E20BD208E2DF
:1002000009D202E307D200E305D20EE203D200E3F3
:1002100001D200E2FFD104E3FDD10EE2FBD100E305
:10022000F9D100E2F7D10CE7F5D109E2F3D100E210
:10023000F1D10DE3EFD100E2EDD105E3EBD10EE218
:10024000E9D100E3E7D1F4D105E4E4D108E7E2D154
:1002500000E7E0D105E3DED10AE3DCD100E2DAD148
:1002600008E2D8D102E3D6D101E3D4D10EE2D2D153
:1002700000E3D0D100E2CED104E3CCD10EE2CAD16A
:1002800000E3C8D100E2C6D10FE2C4D109E2C2D175
:1002900000E2C0D10DE3BED100E2BCD105E3BAD18A
:1002A0000EE2B8D100E3B6D1C3D105E4B3D108E77B
:1002B000B1D100E7AFD106E3ADD10AE3ABD100E2A3
:1002C000A9D108E2A7D102E3A5D101E3A3D10EE2AF
:1002D000A1D100E39FD100E29DD104E39BD10EE2C6
:1002E00099D100E397D100E295D105E293D109E2DB
:1002F00091D100E28FD10DE38DD100E28BD101E3EA
:1003000089D10EE287D100E385D192D105E482D173
:1003100008E780D100E77ED107E37CD10AE37AD1F8
:1003200000E278D108E276D102E374D10EE272D114
:1003300000E370D100E26ED104E36CD10EE26AD129
:1003400000E368D100E266D10EE564D109E262D132
:1003500000E260D10DE35ED100E25CD101E35AD14D
:1003600006E358D10EE256D100E354D161D105E441
:1003700051D108E74FD100E74DD108E34BD10AE353
:1003800049D100E247D108E245D108E243D103E375
:1003900041D10EE23FD100E33DD100E23BD102E387
:1003A00039D10EE237D100E335D100E233D10AE290
:1003B00031D109E22FD100E22DD108E22BD101E3A6
:1003C00029D10EE227D100E325D100E223D101E3B8
:1003D00021D10EE21FD100E31DD100E21BD10BE2BF
:1003E00019D109E217D100E215D10BE213D109E2CC
:1003F00011D100E20FD10DE30DD100E20BD108E3E2
:1004000009D10EE207D100E305D112D105E402D1F2
:1004100008E700D100E7FED009E3FCD00AE3FAD0F8
:1004200000E2F8D008E2F6D001E3F4D000E3F2D025
:1004300000E3F0D00EE2EED000E3ECD000E2EAD030
:1004400009E2E8D000E2E6D00DE3E4D000E2E2D039
:1004500001E3E0D000E3DED000E3DCD00EE2DAD04E
:1004600000E3D8D0E5D005E4D5D008E7D3D000E745
:10047000D1D00BE2CFD00AE3CDD000E2CBD008E25E
:10048000C9D009E2C7D000E2C5D00DE3C3D000E275
:10049000C1D001E3BFD000E3BDD000E3BBD00EE28A
:1004A000B9D000E3B7D0C4D005E4B4D008E7B2D0E7
:1004B00000E7B0D00BE2AED00AE3ACD000E2AAD0A5
:1004C00008E2A8D000E2A6D005E3A4D000E3A2D0C1
:1004D0000EE2A0D000E39ED000E29CD00DE29AD0C4
:1004E00009E298D000E296D00DE394D000E292D0D9
:1004F0000DE290D005E38ED000E38CD00EE28AD0DE
:1005000000E388D095D005E485D008E783D000E7E4
:1005100081D00BE27FD00AE37DD000E27BD008E2FD
:1005200079D001E377D000E275D009E273D000E220
:1005300071D00DE36FD000E26DD001E36BD000E32A
:1005400069D000E367D00EE265D000E363D070D0DD
:1005500005E460D008E75ED000E75CD00BE25AD03B
:100560000AE358D000E256D008E254D002E352D059
:1005700000E250D009E24ED000E24CD00DE34AD068
:1005800000E248D001E346D000E344D000E342D08B
:100590000EE240D000E33ED04BD005E43BD008E76C
:1005A00039D000E737D00BE235D00AE333D000E290
:1005B00031D008E22FD008E22DD001E32BD000E2A9
:1005C00029D009E227D000E225D008E223D002E3B7
:1005D00021D000E21FD009E21DD000E21BD00BE2C7
:1005E00019D009E217D000E215D00DE313D000E2D4
:1005F00011D005E30FD000E30DD00EE20BD000E3E5
:1006000009D016D006E406D009E404D00DE402D0E7
:100610000FD0FFCF1091C00015FFFCCF0093C60094
:10062000089528EC38EC3A95F1F72A95D9F7089512
:0E0630000DE0F0DF0AE0EEDF0895F894FFCF52
:00000001FF
