:100000000C9434000C943E000C943E000C943E0082
:100010000C943E000C943E000C943E000C943E0068
:100020000C943E000C943E000C943E000C943E0058
:100030000C943E000C943E000C943E000C943E0048
:100040000C943E000C943E000C943E000C943E0038
:100050000C943E000C943E000C943E000C943E0028
:100060000C943E000C943E0011241FBECFEFD8E04C
:10007000DEBFCDBF0E9440000C94BF020C94000074
:100080000FEF0DBF08E00EBF07E60093C40000E0CD
:100090000093C50008E00093C10006E00093C20091
:1000A00062D202E559D200E557D20EE455D200E201
:1000B00053D203E451D201E64FD20CE64DD203E60F
:1000C0004BD258D205E448D208E746D200E744D2E2
:1000D00001E342D20AE340D200E23ED208E23CD23F
:1000E00003E33AD20EE238D201E336D204E334D24B
:1000F00000E232D202E330D20EE22ED200E32CD262
:1001000000E22AD20BE228D209E226D200E224D26F
:100110000DE322D200E220D205E31ED20EE21CD271
:1001200001E31AD204E318D200E316D200E314D29A
:1001300000E312D200E310D21DD205E40DD208E78D
:100140000BD200E709D202E307D20AE305D200E2AC
:1001500003D208E201D201E3FFD100E3FDD10EE2B8
:10016000FBD105E3F9D100E2F7D103E3F5D10EE2CB
:10017000F3D105E3F1D100E2EFD10DE2EDD109E2D7
:10018000EBD100E2E9D10DE3E7D100E2E5D107E3ED
:10019000E3D10EE2E1D100E3DFD1ECD105E4DCD123
:1001A00008E7DAD100E7D8D103E3D6D10AE3D4D106
:1001B00000E2D2D108E2D0D104E3CED10EE2CCD11C
:1001C00000E3CAD100E2C8D102E3C6D10EE2C4D135
:1001D00005E3C2D100E2C0D10AE2BED109E2BCD13E
:1001E00000E2BAD10DE3B8D100E2B6D101E3B4D157
:1001F00000E3B2D10EE2B0D100E3AED1BBD105E451
:10020000ABD108E7A9D100E7A7D104E3A5D10AE360
:10021000A3D100E2A1D108E29FD108E39DD10EE273
:100220009BD100E399D100E297D102E395D10EE290
:1002300093D100E391D100E28FD10CE78DD109E297
:100240008BD100E289D10DE387D100E285D104E3AF
:1002500083D10EE281D100E37FD18CD105E47CD142
:1002600008E77AD100E778D105E376D10AE374D1C3
:1002700000E272D108E270D109E36ED10EE26CD1D6
:1002800000E36AD100E268D102E366D10EE264D1F4
:1002900000E362D100E260D10FE25ED109E25CD1FD
:1002A00000E25AD10DE358D100E256D104E354D113
:1002B0000EE252D100E350D15DD105E44DD108E703
:1002C0004BD100E749D106E347D10AE345D100E22B
:1002D00043D108E241D109E33FD10EE23DD100E331
:1002E0003BD100E239D102E337D10EE235D100E350
:1002F00033D100E231D105E22FD109E22DD100E264
:100300002BD10DE329D100E227D101E325D10EE263
:1003100023D100E321D12ED105E41ED108E71CD161
:1003200000E71AD107E318D10AE316D100E214D18D
:1003300008E212D102E310D10EE20ED100E30CD19B
:1003400000E20AD103E308D10EE206D100E304D1B2
:1003500000E202D10EE500D109E2FED000E2FCD0BD
:100360000DE3FAD000E2F8D008E3F6D00EE2F4D0C4
:1003700000E3F2D0FFD005E4EFD008E7EDD000E7CE
:10038000EBD008E3E9D00AE3E7D000E2E5D008E2E9
:10039000E3D008E2E1D005E3DFD00EE2DDD000E3F8
:1003A000DBD000E2D9D002E3D7D00EE2D5D000E313
:1003B000D3D000E2D1D00BE2CFD009E2CDD000E221
:1003C000CBD008E2C9D003E3C7D00EE2C5D000E32A
:1003D000C3D000E2C1D001E3BFD00EE2BDD000E344
:1003E000BBD000E2B9D00DE2B7D009E2B5D000E24F
:1003F000B3D00AE2B1D009E2AFD000E2ADD00DE354
:10040000ABD000E2A9D001E3A7D004E3A5D00EE26F
:10041000A3D000E3A1D0AED005E49ED008E79CD0E5
:1004200000E79AD009E398D00AE396D000E294D08E
:1004300008E292D001E390D000E38ED00EE28CD09F
:1004400000E38AD000E288D009E286D000E284D0BE
:100450000DE382D000E280D001E37ED000E37CD0C7
:100460000EE27AD000E378D085D005E475D008E7B5
:1004700073D000E771D00BE26FD00AE36DD000E2D9
:100480006BD008E269D000E267D002E365D00EE2EB
:1004900063D000E361D000E25FD00BE25DD009E2FF
:1004A0005BD000E259D00DE357D000E255D002E313
:1004B00053D00EE251D000E34FD05CD005E44CD0D5
:1004C00008E74AD000E748D00BE246D00AE344D020
:1004D00000E242D008E240D001E33ED000E23CD04E
:1004E00009E23AD000E238D00DE336D000E234D051
:1004F00001E332D000E330D00EE22ED000E32CD066
:1005000039D005E429D008E727D000E725D00BE251
:1005100023D00AE321D000E21FD008E21DD002E37D
:100520001BD000E219D009E217D000E215D00DE38C
:1005300013D000E211D001E30FD000E30DD00EE2A2
:100540000BD000E309D016D006E406D009E404D0AD
:100550000DE402D00FD0FFCF1091C00015FFFCCFEB
:100560000093C600089528EC38EC3A95F1F72A95E7
:10057000D9F708950DE0F0DF0AE0EEDF0895F89472
:02058000FFCFAB
:00000001FF
